{
  "contractName": "CarbonOffsetToken",
  "abi": [
    {
      "inputs": [
        {
          "internalType": "uint256",
          "name": "initialSupply",
          "type": "uint256"
        },
        {
          "internalType": "uint256",
          "name": "initialPrice",
          "type": "uint256"
        }
      ],
      "stateMutability": "nonpayable",
      "type": "constructor"
    },
    {
      "inputs": [
        {
          "internalType": "address",
          "name": "spender",
          "type": "address"
        },
        {
          "internalType": "uint256",
          "name": "allowance",
          "type": "uint256"
        },
        {
          "internalType": "uint256",
          "name": "needed",
          "type": "uint256"
        }
      ],
      "name": "ERC20InsufficientAllowance",
      "type": "error"
    },
    {
      "inputs": [
        {
          "internalType": "address",
          "name": "sender",
          "type": "address"
        },
        {
          "internalType": "uint256",
          "name": "balance",
          "type": "uint256"
        },
        {
          "internalType": "uint256",
          "name": "needed",
          "type": "uint256"
        }
      ],
      "name": "ERC20InsufficientBalance",
      "type": "error"
    },
    {
      "inputs": [
        {
          "internalType": "address",
          "name": "approver",
          "type": "address"
        }
      ],
      "name": "ERC20InvalidApprover",
      "type": "error"
    },
    {
      "inputs": [
        {
          "internalType": "address",
          "name": "receiver",
          "type": "address"
        }
      ],
      "name": "ERC20InvalidReceiver",
      "type": "error"
    },
    {
      "inputs": [
        {
          "internalType": "address",
          "name": "sender",
          "type": "address"
        }
      ],
      "name": "ERC20InvalidSender",
      "type": "error"
    },
    {
      "inputs": [
        {
          "internalType": "address",
          "name": "spender",
          "type": "address"
        }
      ],
      "name": "ERC20InvalidSpender",
      "type": "error"
    },
    {
      "inputs": [
        {
          "internalType": "address",
          "name": "owner",
          "type": "address"
        }
      ],
      "name": "OwnableInvalidOwner",
      "type": "error"
    },
    {
      "inputs": [
        {
          "internalType": "address",
          "name": "account",
          "type": "address"
        }
      ],
      "name": "OwnableUnauthorizedAccount",
      "type": "error"
    },
    {
      "anonymous": false,
      "inputs": [
        {
          "indexed": true,
          "internalType": "address",
          "name": "owner",
          "type": "address"
        },
        {
          "indexed": true,
          "internalType": "address",
          "name": "spender",
          "type": "address"
        },
        {
          "indexed": false,
          "internalType": "uint256",
          "name": "value",
          "type": "uint256"
        }
      ],
      "name": "Approval",
      "type": "event"
    },
    {
      "anonymous": false,
      "inputs": [
        {
          "indexed": true,
          "internalType": "address",
          "name": "user",
          "type": "address"
        },
        {
          "indexed": false,
          "internalType": "uint256",
          "name": "amount",
          "type": "uint256"
        }
      ],
      "name": "CarbonFootprintUpdated",
      "type": "event"
    },
    {
      "anonymous": false,
      "inputs": [
        {
          "indexed": true,
          "internalType": "address",
          "name": "user",
          "type": "address"
        },
        {
          "indexed": false,
          "internalType": "uint256",
          "name": "amount",
          "type": "uint256"
        },
        {
          "indexed": false,
          "internalType": "uint256",
          "name": "cost",
          "type": "uint256"
        }
      ],
      "name": "CarbonOffsetPurchased",
      "type": "event"
    },
    {
      "anonymous": false,
      "inputs": [
        {
          "indexed": true,
          "internalType": "address",
          "name": "previousOwner",
          "type": "address"
        },
        {
          "indexed": true,
          "internalType": "address",
          "name": "newOwner",
          "type": "address"
        }
      ],
      "name": "OwnershipTransferred",
      "type": "event"
    },
    {
      "anonymous": false,
      "inputs": [
        {
          "indexed": true,
          "internalType": "address",
          "name": "from",
          "type": "address"
        },
        {
          "indexed": true,
          "internalType": "address",
          "name": "to",
          "type": "address"
        },
        {
          "indexed": false,
          "internalType": "uint256",
          "name": "value",
          "type": "uint256"
        }
      ],
      "name": "Transfer",
      "type": "event"
    },
    {
      "inputs": [
        {
          "internalType": "address",
          "name": "owner",
          "type": "address"
        },
        {
          "internalType": "address",
          "name": "spender",
          "type": "address"
        }
      ],
      "name": "allowance",
      "outputs": [
        {
          "internalType": "uint256",
          "name": "",
          "type": "uint256"
        }
      ],
      "stateMutability": "view",
      "type": "function",
      "constant": true
    },
    {
      "inputs": [
        {
          "internalType": "address",
          "name": "spender",
          "type": "address"
        },
        {
          "internalType": "uint256",
          "name": "value",
          "type": "uint256"
        }
      ],
      "name": "approve",
      "outputs": [
        {
          "internalType": "bool",
          "name": "",
          "type": "bool"
        }
      ],
      "stateMutability": "nonpayable",
      "type": "function"
    },
    {
      "inputs": [
        {
          "internalType": "address",
          "name": "account",
          "type": "address"
        }
      ],
      "name": "balanceOf",
      "outputs": [
        {
          "internalType": "uint256",
          "name": "",
          "type": "uint256"
        }
      ],
      "stateMutability": "view",
      "type": "function",
      "constant": true
    },
    {
      "inputs": [],
      "name": "decimals",
      "outputs": [
        {
          "internalType": "uint8",
          "name": "",
          "type": "uint8"
        }
      ],
      "stateMutability": "view",
      "type": "function",
      "constant": true
    },
    {
      "inputs": [],
      "name": "name",
      "outputs": [
        {
          "internalType": "string",
          "name": "",
          "type": "string"
        }
      ],
      "stateMutability": "view",
      "type": "function",
      "constant": true
    },
    {
      "inputs": [],
      "name": "owner",
      "outputs": [
        {
          "internalType": "address",
          "name": "",
          "type": "address"
        }
      ],
      "stateMutability": "view",
      "type": "function",
      "constant": true
    },
    {
      "inputs": [],
      "name": "renounceOwnership",
      "outputs": [],
      "stateMutability": "nonpayable",
      "type": "function"
    },
    {
      "inputs": [],
      "name": "symbol",
      "outputs": [
        {
          "internalType": "string",
          "name": "",
          "type": "string"
        }
      ],
      "stateMutability": "view",
      "type": "function",
      "constant": true
    },
    {
      "inputs": [],
      "name": "tokenPrice",
      "outputs": [
        {
          "internalType": "uint256",
          "name": "",
          "type": "uint256"
        }
      ],
      "stateMutability": "view",
      "type": "function",
      "constant": true
    },
    {
      "inputs": [],
      "name": "totalSupply",
      "outputs": [
        {
          "internalType": "uint256",
          "name": "",
          "type": "uint256"
        }
      ],
      "stateMutability": "view",
      "type": "function",
      "constant": true
    },
    {
      "inputs": [
        {
          "internalType": "address",
          "name": "to",
          "type": "address"
        },
        {
          "internalType": "uint256",
          "name": "value",
          "type": "uint256"
        }
      ],
      "name": "transfer",
      "outputs": [
        {
          "internalType": "bool",
          "name": "",
          "type": "bool"
        }
      ],
      "stateMutability": "nonpayable",
      "type": "function"
    },
    {
      "inputs": [
        {
          "internalType": "address",
          "name": "from",
          "type": "address"
        },
        {
          "internalType": "address",
          "name": "to",
          "type": "address"
        },
        {
          "internalType": "uint256",
          "name": "value",
          "type": "uint256"
        }
      ],
      "name": "transferFrom",
      "outputs": [
        {
          "internalType": "bool",
          "name": "",
          "type": "bool"
        }
      ],
      "stateMutability": "nonpayable",
      "type": "function"
    },
    {
      "inputs": [
        {
          "internalType": "address",
          "name": "newOwner",
          "type": "address"
        }
      ],
      "name": "transferOwnership",
      "outputs": [],
      "stateMutability": "nonpayable",
      "type": "function"
    },
    {
      "inputs": [
        {
          "internalType": "address",
          "name": "",
          "type": "address"
        }
      ],
      "name": "userCarbonFootprints",
      "outputs": [
        {
          "internalType": "uint256",
          "name": "",
          "type": "uint256"
        }
      ],
      "stateMutability": "view",
      "type": "function",
      "constant": true
    },
    {
      "inputs": [
        {
          "internalType": "uint256",
          "name": "amount",
          "type": "uint256"
        }
      ],
      "name": "updateCarbonFootprint",
      "outputs": [],
      "stateMutability": "nonpayable",
      "type": "function"
    },
    {
      "inputs": [
        {
          "internalType": "uint256",
          "name": "tokenAmount",
          "type": "uint256"
        }
      ],
      "name": "purchaseOffsets",
      "outputs": [],
      "stateMutability": "payable",
      "type": "function",
      "payable": true
    },
    {
      "inputs": [
        {
          "internalType": "uint256",
          "name": "newPrice",
          "type": "uint256"
        }
      ],
      "name": "setTokenPrice",
      "outputs": [],
      "stateMutability": "nonpayable",
      "type": "function"
    },
    {
      "inputs": [],
      "name": "withdrawFunds",
      "outputs": [],
      "stateMutability": "nonpayable",
      "type": "function"
    }
  ],
  "bytecode": "0x608060405234801562000010575f80fd5b5060405162001301380380620013018339810160408190526200003391620002be565b336040518060400160405280600c81526020016b10d85c989bdb93d9999cd95d60a21b8152506040518060400160405280600381526020016221a79960e91b815250816003908162000086919062000381565b50600462000095828262000381565b5050506001600160a01b038116620000c757604051631e4fbdf760e01b81525f60048201526024015b60405180910390fd5b620000d28162000102565b50620000f833620000e66012600a62000558565b620000f290856200056f565b62000153565b600655506200059f565b600580546001600160a01b038381166001600160a01b0319831681179093556040519116919082907f8be0079c531659141344cd1fd0a4f28419497f9722a3daafe3b4186f6b6457e0905f90a35050565b6001600160a01b0382166200017e5760405163ec442f0560e01b81525f6004820152602401620000be565b6200018b5f83836200018f565b5050565b6001600160a01b038316620001bd578060025f828254620001b1919062000589565b909155506200022f9050565b6001600160a01b0383165f9081526020819052604090205481811015620002115760405163391434e360e21b81526001600160a01b03851660048201526024810182905260448101839052606401620000be565b6001600160a01b0384165f9081526020819052604090209082900390555b6001600160a01b0382166200024d576002805482900390556200026b565b6001600160a01b0382165f9081526020819052604090208054820190555b816001600160a01b0316836001600160a01b03167fddf252ad1be2c89b69c2b068fc378daa952ba7f163c4a11628f55a4df523b3ef83604051620002b191815260200190565b60405180910390a3505050565b5f8060408385031215620002d0575f80fd5b505080516020909101519092909150565b634e487b7160e01b5f52604160045260245ffd5b600181811c908216806200030a57607f821691505b6020821081036200032957634e487b7160e01b5f52602260045260245ffd5b50919050565b601f8211156200037c575f81815260208120601f850160051c81016020861015620003575750805b601f850160051c820191505b81811015620003785782815560010162000363565b5050505b505050565b81516001600160401b038111156200039d576200039d620002e1565b620003b581620003ae8454620002f5565b846200032f565b602080601f831160018114620003eb575f8415620003d35750858301515b5f19600386901b1c1916600185901b17855562000378565b5f85815260208120601f198616915b828110156200041b57888601518255948401946001909101908401620003fa565b50858210156200043957878501515f19600388901b60f8161c191681555b5050505050600190811b01905550565b634e487b7160e01b5f52601160045260245ffd5b600181815b808511156200049d57815f190482111562000481576200048162000449565b808516156200048f57918102915b93841c939080029062000462565b509250929050565b5f82620004b55750600162000552565b81620004c357505f62000552565b8160018114620004dc5760028114620004e75762000507565b600191505062000552565b60ff841115620004fb57620004fb62000449565b50506001821b62000552565b5060208310610133831016604e8410600b84101617156200052c575081810a62000552565b6200053883836200045d565b805f19048211156200054e576200054e62000449565b0290505b92915050565b5f6200056860ff841683620004a5565b9392505050565b808202811582820484141762000552576200055262000449565b8082018082111562000552576200055262000449565b610d5480620005ad5f395ff3fe608060405260043610610105575f3560e01c80636a61e5fc116100925780638da5cb5b116100625780638da5cb5b146102ad57806395d89b41146102d4578063a9059cbb146102e8578063dd62ed3e14610307578063f2fde38b1461034b575f80fd5b80636a61e5fc1461023157806370a0823114610250578063715018a6146102845780637ff9b59614610298575f80fd5b806323b872dd116100d857806323b872dd146101af57806324600fc3146101ce578063313ce567146101e4578063442cac6c146101ff57806344d8de9d1461021e575f80fd5b806306fdde0314610109578063095ea7b31461013357806315e19d061461016257806318160ddd1461019b575b5f80fd5b348015610114575f80fd5b5061011d61036a565b60405161012a9190610a78565b60405180910390f35b34801561013e575f80fd5b5061015261014d366004610ade565b6103fa565b604051901515815260200161012a565b34801561016d575f80fd5b5061018d61017c366004610b06565b60076020525f908152604090205481565b60405190815260200161012a565b3480156101a6575f80fd5b5060025461018d565b3480156101ba575f80fd5b506101526101c9366004610b26565b610413565b3480156101d9575f80fd5b506101e2610436565b005b3480156101ef575f80fd5b506040516012815260200161012a565b34801561020a575f80fd5b506101e2610219366004610b5f565b6104ea565b6101e261022c366004610b5f565b610538565b34801561023c575f80fd5b506101e261024b366004610b5f565b6106a6565b34801561025b575f80fd5b5061018d61026a366004610b06565b6001600160a01b03165f9081526020819052604090205490565b34801561028f575f80fd5b506101e26106b3565b3480156102a3575f80fd5b5061018d60065481565b3480156102b8575f80fd5b506005546040516001600160a01b03909116815260200161012a565b3480156102df575f80fd5b5061011d6106c6565b3480156102f3575f80fd5b50610152610302366004610ade565b6106d5565b348015610312575f80fd5b5061018d610321366004610b76565b6001600160a01b039182165f90815260016020908152604080832093909416825291909152205490565b348015610356575f80fd5b506101e2610365366004610b06565b6106e2565b60606003805461037990610ba7565b80601f01602080910402602001604051908101604052809291908181526020018280546103a590610ba7565b80156103f05780601f106103c7576101008083540402835291602001916103f0565b820191905f5260205f20905b8154815290600101906020018083116103d357829003601f168201915b5050505050905090565b5f3361040781858561071c565b60019150505b92915050565b5f33610420858285610729565b61042b8585856107a5565b506001949350505050565b61043e610802565b5f6104516005546001600160a01b031690565b6001600160a01b0316476040515f6040518083038185875af1925050503d805f8114610498576040519150601f19603f3d011682016040523d82523d5f602084013e61049d565b606091505b50509050806104e75760405162461bcd60e51b815260206004820152601160248201527015da5d1a191c985dd85b0819985a5b1959607a1b60448201526064015b60405180910390fd5b50565b335f8181526007602052604090819020839055517fc6770c48060ba232e75b45b0c4c47d3dd1115b574020b61e1163849d565147cb9061052d9084815260200190565b60405180910390a250565b5f600654826105479190610bf3565b9050803410156105915760405162461bcd60e51b8152602060048201526015602482015274125b9cdd59999a58da595b9d08115512081cd95b9d605a1b60448201526064016104de565b6105c26105a66005546001600160a01b031690565b336105b36012600a610cea565b6105bd9086610bf3565b6107a5565b604080518381526020810183905233917fd067335319556e75e8842aaaa419e0a3103392e177985753f4f98405229a7ef1910160405180910390a2803411156106a2575f336106118334610cf8565b6040515f81818185875af1925050503d805f811461064a576040519150601f19603f3d011682016040523d82523d5f602084013e61064f565b606091505b50509050806106a05760405162461bcd60e51b815260206004820152601b60248201527f4661696c656420746f2072657475726e2065786365737320455448000000000060448201526064016104de565b505b5050565b6106ae610802565b600655565b6106bb610802565b6106c45f61082f565b565b60606004805461037990610ba7565b5f336104078185856107a5565b6106ea610802565b6001600160a01b03811661071357604051631e4fbdf760e01b81525f60048201526024016104de565b6104e78161082f565b6106a08383836001610880565b6001600160a01b038381165f908152600160209081526040808320938616835292905220545f1981101561079f578181101561079157604051637dc7a0d960e11b81526001600160a01b038416600482015260248101829052604481018390526064016104de565b61079f84848484035f610880565b50505050565b6001600160a01b0383166107ce57604051634b637e8f60e11b81525f60048201526024016104de565b6001600160a01b0382166107f75760405163ec442f0560e01b81525f60048201526024016104de565b6106a0838383610952565b6005546001600160a01b031633146106c45760405163118cdaa760e01b81523360048201526024016104de565b600580546001600160a01b038381166001600160a01b0319831681179093556040519116919082907f8be0079c531659141344cd1fd0a4f28419497f9722a3daafe3b4186f6b6457e0905f90a35050565b6001600160a01b0384166108a95760405163e602df0560e01b81525f60048201526024016104de565b6001600160a01b0383166108d257604051634a1406b160e11b81525f60048201526024016104de565b6001600160a01b038085165f908152600160209081526040808320938716835292905220829055801561079f57826001600160a01b0316846001600160a01b03167f8c5be1e5ebec7d5bd14f71427d1e84f3dd0314c0f7b2291e5b200ac8c7c3b9258460405161094491815260200190565b60405180910390a350505050565b6001600160a01b03831661097c578060025f8282546109719190610d0b565b909155506109ec9050565b6001600160a01b0383165f90815260208190526040902054818110156109ce5760405163391434e360e21b81526001600160a01b038516600482015260248101829052604481018390526064016104de565b6001600160a01b0384165f9081526020819052604090209082900390555b6001600160a01b038216610a0857600280548290039055610a26565b6001600160a01b0382165f9081526020819052604090208054820190555b816001600160a01b0316836001600160a01b03167fddf252ad1be2c89b69c2b068fc378daa952ba7f163c4a11628f55a4df523b3ef83604051610a6b91815260200190565b60405180910390a3505050565b5f6020808352835180828501525f5b81811015610aa357858101830151858201604001528201610a87565b505f604082860101526040601f19601f8301168501019250505092915050565b80356001600160a01b0381168114610ad9575f80fd5b919050565b5f8060408385031215610aef575f80fd5b610af883610ac3565b946020939093013593505050565b5f60208284031215610b16575f80fd5b610b1f82610ac3565b9392505050565b5f805f60608486031215610b38575f80fd5b610b4184610ac3565b9250610b4f60208501610ac3565b9150604084013590509250925092565b5f60208284031215610b6f575f80fd5b5035919050565b5f8060408385031215610b87575f80fd5b610b9083610ac3565b9150610b9e60208401610ac3565b90509250929050565b600181811c90821680610bbb57607f821691505b602082108103610bd957634e487b7160e01b5f52602260045260245ffd5b50919050565b634e487b7160e01b5f52601160045260245ffd5b808202811582820484141761040d5761040d610bdf565b600181815b80851115610c4457815f1904821115610c2a57610c2a610bdf565b80851615610c3757918102915b93841c9390800290610c0f565b509250929050565b5f82610c5a5750600161040d565b81610c6657505f61040d565b8160018114610c7c5760028114610c8657610ca2565b600191505061040d565b60ff841115610c9757610c97610bdf565b50506001821b61040d565b5060208310610133831016604e8410600b8410161715610cc5575081810a61040d565b610ccf8383610c0a565b805f1904821115610ce257610ce2610bdf565b029392505050565b5f610b1f60ff841683610c4c565b8181038181111561040d5761040d610bdf565b8082018082111561040d5761040d610bdf56fea2646970667358221220590f58fc4d047a4c58bf31c0ef884ef445916542dfc71d7ba6ca87038ed44d5964736f6c63430008140033",
  "immutableReferences": {},
  "source": "// SPDX-License-Identifier: MIT\npragma solidity ^0.8.0;\n\nimport \"@openzeppelin/contracts/token/ERC20/ERC20.sol\";\nimport \"@openzeppelin/contracts/access/Ownable.sol\";\n\n/**\n * @title CarbonOffsetToken\n * @dev ERC20 token representing carbon offsets\n */\ncontract CarbonOffsetToken is ERC20, Ownable {\n    // Price of 1 carbon offset token in wei\n    uint256 public tokenPrice;\n    \n    // Mapping to store user carbon footprints\n    mapping(address => uint256) public userCarbonFootprints;\n    \n    // Event emitted when a user updates their carbon footprint\n    event CarbonFootprintUpdated(address indexed user, uint256 amount);\n    \n    // Event emitted when a user purchases carbon offsets\n    event CarbonOffsetPurchased(address indexed user, uint256 amount, uint256 cost);\n\n    /**\n     * @dev Constructor that gives the msg.sender all initial tokens\n     * @param initialSupply The initial supply of tokens\n     * @param initialPrice The initial price of one token in wei\n     */\n    constructor(uint256 initialSupply, uint256 initialPrice) ERC20(\"CarbonOffset\", \"CO2\") Ownable(msg.sender) {\n        _mint(msg.sender, initialSupply * (10 ** decimals()));\n        tokenPrice = initialPrice;\n    }\n    \n    /**\n     * @dev Update the carbon footprint for a user\n     * @param amount The carbon footprint in kg CO2\n     */\n    function updateCarbonFootprint(uint256 amount) external {\n        userCarbonFootprints[msg.sender] = amount;\n        emit CarbonFootprintUpdated(msg.sender, amount);\n    }\n    \n    /**\n     * @dev Purchase carbon offset tokens\n     * @param tokenAmount The amount of tokens to purchase\n     */\n    function purchaseOffsets(uint256 tokenAmount) external payable {\n        // Calculate the cost\n        uint256 cost = tokenAmount * tokenPrice;\n        \n        // Check if enough ETH was sent\n        require(msg.value >= cost, \"Insufficient ETH sent\");\n        \n        // Transfer tokens from contract owner to the buyer\n        _transfer(owner(), msg.sender, tokenAmount * (10 ** decimals()));\n        \n        // Emit purchase event\n        emit CarbonOffsetPurchased(msg.sender, tokenAmount, cost);\n        \n        // Return excess ETH if any\n        if (msg.value > cost) {\n            (bool success, ) = payable(msg.sender).call{value: msg.value - cost}(\"\");\n            require(success, \"Failed to return excess ETH\");\n        }\n    }\n    \n    /**\n     * @dev Set a new token price\n     * @param newPrice The new price in wei\n     */\n    function setTokenPrice(uint256 newPrice) external onlyOwner {\n        tokenPrice = newPrice;\n    }\n    \n    /**\n     * @dev Allows the owner to withdraw accumulated ETH\n     */\n    function withdrawFunds() external onlyOwner {\n        (bool success, ) = payable(owner()).call{value: address(this).balance}(\"\");\n        require(success, \"Withdrawal failed\");\n    }\n}",
  "sourcePath": "/home/verz/Big-Brown-Coder/backend/block/contracts/CarbonOffsetToken.sol",
  "compiler": {
    "name": "solc",
    "version": "0.8.20+commit.a1b79de6.Emscripten.clang"
  },
  "schemaVersion": "3.4.16",
  "updatedAt": "2025-03-09T02:24:25.389Z",
  "networkType": "ethereum",
  "devdoc": {
    "details": "ERC20 token representing carbon offsets",
    "errors": {
      "ERC20InsufficientAllowance(address,uint256,uint256)": [
        {
          "details": "Indicates a failure with the `spender`s `allowance`. Used in transfers.",
          "params": {
            "allowance": "Amount of tokens a `spender` is allowed to operate with.",
            "needed": "Minimum amount required to perform a transfer.",
            "spender": "Address that may be allowed to operate on tokens without being their owner."
          }
        }
      ],
      "ERC20InsufficientBalance(address,uint256,uint256)": [
        {
          "details": "Indicates an error related to the current `balance` of a `sender`. Used in transfers.",
          "params": {
            "balance": "Current balance for the interacting account.",
            "needed": "Minimum amount required to perform a transfer.",
            "sender": "Address whose tokens are being transferred."
          }
        }
      ],
      "ERC20InvalidApprover(address)": [
        {
          "details": "Indicates a failure with the `approver` of a token to be approved. Used in approvals.",
          "params": {
            "approver": "Address initiating an approval operation."
          }
        }
      ],
      "ERC20InvalidReceiver(address)": [
        {
          "details": "Indicates a failure with the token `receiver`. Used in transfers.",
          "params": {
            "receiver": "Address to which tokens are being transferred."
          }
        }
      ],
      "ERC20InvalidSender(address)": [
        {
          "details": "Indicates a failure with the token `sender`. Used in transfers.",
          "params": {
            "sender": "Address whose tokens are being transferred."
          }
        }
      ],
      "ERC20InvalidSpender(address)": [
        {
          "details": "Indicates a failure with the `spender` to be approved. Used in approvals.",
          "params": {
            "spender": "Address that may be allowed to operate on tokens without being their owner."
          }
        }
      ],
      "OwnableInvalidOwner(address)": [
        {
          "details": "The owner is not a valid owner account. (eg. `address(0)`)"
        }
      ],
      "OwnableUnauthorizedAccount(address)": [
        {
          "details": "The caller account is not authorized to perform an operation."
        }
      ]
    },
    "events": {
      "Approval(address,address,uint256)": {
        "details": "Emitted when the allowance of a `spender` for an `owner` is set by a call to {approve}. `value` is the new allowance."
      },
      "Transfer(address,address,uint256)": {
        "details": "Emitted when `value` tokens are moved from one account (`from`) to another (`to`). Note that `value` may be zero."
      }
    },
    "kind": "dev",
    "methods": {
      "allowance(address,address)": {
        "details": "See {IERC20-allowance}."
      },
      "approve(address,uint256)": {
        "details": "See {IERC20-approve}. NOTE: If `value` is the maximum `uint256`, the allowance is not updated on `transferFrom`. This is semantically equivalent to an infinite approval. Requirements: - `spender` cannot be the zero address."
      },
      "balanceOf(address)": {
        "details": "See {IERC20-balanceOf}."
      },
      "constructor": {
        "details": "Constructor that gives the msg.sender all initial tokens",
        "params": {
          "initialPrice": "The initial price of one token in wei",
          "initialSupply": "The initial supply of tokens"
        }
      },
      "decimals()": {
        "details": "Returns the number of decimals used to get its user representation. For example, if `decimals` equals `2`, a balance of `505` tokens should be displayed to a user as `5.05` (`505 / 10 ** 2`). Tokens usually opt for a value of 18, imitating the relationship between Ether and Wei. This is the default value returned by this function, unless it's overridden. NOTE: This information is only used for _display_ purposes: it in no way affects any of the arithmetic of the contract, including {IERC20-balanceOf} and {IERC20-transfer}."
      },
      "name()": {
        "details": "Returns the name of the token."
      },
      "owner()": {
        "details": "Returns the address of the current owner."
      },
      "purchaseOffsets(uint256)": {
        "details": "Purchase carbon offset tokens",
        "params": {
          "tokenAmount": "The amount of tokens to purchase"
        }
      },
      "renounceOwnership()": {
        "details": "Leaves the contract without owner. It will not be possible to call `onlyOwner` functions. Can only be called by the current owner. NOTE: Renouncing ownership will leave the contract without an owner, thereby disabling any functionality that is only available to the owner."
      },
      "setTokenPrice(uint256)": {
        "details": "Set a new token price",
        "params": {
          "newPrice": "The new price in wei"
        }
      },
      "symbol()": {
        "details": "Returns the symbol of the token, usually a shorter version of the name."
      },
      "totalSupply()": {
        "details": "See {IERC20-totalSupply}."
      },
      "transfer(address,uint256)": {
        "details": "See {IERC20-transfer}. Requirements: - `to` cannot be the zero address. - the caller must have a balance of at least `value`."
      },
      "transferFrom(address,address,uint256)": {
        "details": "See {IERC20-transferFrom}. Skips emitting an {Approval} event indicating an allowance update. This is not required by the ERC. See {xref-ERC20-_approve-address-address-uint256-bool-}[_approve]. NOTE: Does not update the allowance if the current allowance is the maximum `uint256`. Requirements: - `from` and `to` cannot be the zero address. - `from` must have a balance of at least `value`. - the caller must have allowance for ``from``'s tokens of at least `value`."
      },
      "transferOwnership(address)": {
        "details": "Transfers ownership of the contract to a new account (`newOwner`). Can only be called by the current owner."
      },
      "updateCarbonFootprint(uint256)": {
        "details": "Update the carbon footprint for a user",
        "params": {
          "amount": "The carbon footprint in kg CO2"
        }
      },
      "withdrawFunds()": {
        "details": "Allows the owner to withdraw accumulated ETH"
      }
    },
    "title": "CarbonOffsetToken",
    "version": 1
  },
  "userdoc": {
    "kind": "user",
    "methods": {},
    "version": 1
  }
}